{
  "address": "0x791511F68EE1faD307A5d8944A289a5b1441279d",
  "abi": [
    {
      "inputs": [
        {
          "internalType": "address",
          "name": "priceFeedAddress",
          "type": "address"
        }
      ],
      "stateMutability": "nonpayable",
      "type": "constructor"
    },
    {
      "inputs": [],
      "name": "FundMe__MinimumAmount",
      "type": "error"
    },
    {
      "inputs": [],
      "name": "FundMe__NotOwner",
      "type": "error"
    },
    {
      "inputs": [],
      "name": "FundMe__TransactionFailure",
      "type": "error"
    },
    {
      "stateMutability": "payable",
      "type": "fallback"
    },
    {
      "inputs": [],
      "name": "fund",
      "outputs": [],
      "stateMutability": "payable",
      "type": "function"
    },
    {
      "inputs": [
        {
          "internalType": "address",
          "name": "_address",
          "type": "address"
        }
      ],
      "name": "getAddressToAmountFunded",
      "outputs": [
        {
          "internalType": "uint256",
          "name": "",
          "type": "uint256"
        }
      ],
      "stateMutability": "view",
      "type": "function"
    },
    {
      "inputs": [],
      "name": "getBalance",
      "outputs": [
        {
          "internalType": "uint256",
          "name": "",
          "type": "uint256"
        }
      ],
      "stateMutability": "view",
      "type": "function"
    },
    {
      "inputs": [
        {
          "internalType": "uint256",
          "name": "index",
          "type": "uint256"
        }
      ],
      "name": "getFunders",
      "outputs": [
        {
          "internalType": "address",
          "name": "",
          "type": "address"
        }
      ],
      "stateMutability": "view",
      "type": "function"
    },
    {
      "inputs": [],
      "name": "getMinUsd",
      "outputs": [
        {
          "internalType": "uint256",
          "name": "",
          "type": "uint256"
        }
      ],
      "stateMutability": "pure",
      "type": "function"
    },
    {
      "inputs": [],
      "name": "getOwner",
      "outputs": [
        {
          "internalType": "address",
          "name": "",
          "type": "address"
        }
      ],
      "stateMutability": "view",
      "type": "function"
    },
    {
      "inputs": [],
      "name": "withdraw",
      "outputs": [],
      "stateMutability": "nonpayable",
      "type": "function"
    },
    {
      "stateMutability": "payable",
      "type": "receive"
    }
  ],
  "transactionHash": "0x02838f1d325a6c57f17f70deba4b035800feec039fb442ec76e366f3c9922b64",
  "args": [
    "0xD4a33860578De61DBAbDc8BFdb98FD742fA7028e"
  ],
  "numDeployments": 1,
  "solcInputHash": "6e90b2070e1594294eca55c7d8653a1c",
  "bytecode": "0x60a060405234801561001057600080fd5b50604051610dd9380380610dd983398181016040528101906100329190610110565b80600260006101000a81548173ffffffffffffffffffffffffffffffffffffffff021916908373ffffffffffffffffffffffffffffffffffffffff1602179055503373ffffffffffffffffffffffffffffffffffffffff1660808173ffffffffffffffffffffffffffffffffffffffff16815250505061013d565b600080fd5b600073ffffffffffffffffffffffffffffffffffffffff82169050919050565b60006100dd826100b2565b9050919050565b6100ed816100d2565b81146100f857600080fd5b50565b60008151905061010a816100e4565b92915050565b600060208284031215610126576101256100ad565b5b6000610134848285016100fb565b91505092915050565b608051610c7a61015f600039600081816103bc01526105ff0152610c7a6000f3fe6080604052600436106100745760003560e01c80633ccfd60b1161004e5780633ccfd60b1461013257806362ace8f314610149578063893d20e814610174578063b60d42881461019f57610083565b80630343fb251461008d57806312065fe0146100ca5780633a7b6c74146100f557610083565b36610083576100816101a9565b005b61008b6101a9565b005b34801561009957600080fd5b506100b460048036038101906100af91906107ef565b610322565b6040516100c19190610835565b60405180910390f35b3480156100d657600080fd5b506100df61036b565b6040516100ec9190610835565b60405180910390f35b34801561010157600080fd5b5061011c6004803603810190610117919061087c565b610373565b60405161012991906108b8565b60405180910390f35b34801561013e57600080fd5b506101476103ba565b005b34801561015557600080fd5b5061015e6105eb565b60405161016b9190610835565b60405180910390f35b34801561018057600080fd5b506101896105fb565b60405161019691906108b8565b60405180910390f35b6101a76101a9565b005b678ac7230489e800006101e7600260009054906101000a900473ffffffffffffffffffffffffffffffffffffffff163461062390919063ffffffff16565b101561021f576040517f717c469f00000000000000000000000000000000000000000000000000000000815260040160405180910390fd5b6000600160003373ffffffffffffffffffffffffffffffffffffffff1673ffffffffffffffffffffffffffffffffffffffff16815260200190815260200160002054036102ca576000339080600181540180825580915050600190039060005260206000200160009091909190916101000a81548173ffffffffffffffffffffffffffffffffffffffff021916908373ffffffffffffffffffffffffffffffffffffffff1602179055505b34600160003373ffffffffffffffffffffffffffffffffffffffff1673ffffffffffffffffffffffffffffffffffffffff16815260200190815260200160002060008282546103199190610902565b92505081905550565b6000600160008373ffffffffffffffffffffffffffffffffffffffff1673ffffffffffffffffffffffffffffffffffffffff168152602001908152602001600020549050919050565b600047905090565b600080828154811061038857610387610936565b5b9060005260206000200160009054906101000a900473ffffffffffffffffffffffffffffffffffffffff169050919050565b7f000000000000000000000000000000000000000000000000000000000000000073ffffffffffffffffffffffffffffffffffffffff163373ffffffffffffffffffffffffffffffffffffffff161461043f576040517f579610db00000000000000000000000000000000000000000000000000000000815260040160405180910390fd5b60005b6000805490508110156104e45760006001600080848154811061046857610467610936565b5b9060005260206000200160009054906101000a900473ffffffffffffffffffffffffffffffffffffffff1673ffffffffffffffffffffffffffffffffffffffff1673ffffffffffffffffffffffffffffffffffffffff1681526020019081526020016000208190555080806104dc90610965565b915050610442565b50600067ffffffffffffffff811115610500576104ff6109ad565b5b60405190808252806020026020018201604052801561052e5781602001602082028036833780820191505090505b50600090805190602001906105449291906106e5565b5060003373ffffffffffffffffffffffffffffffffffffffff164760405161056b90610a0d565b60006040518083038185875af1925050503d80600081146105a8576040519150601f19603f3d011682016040523d82523d6000602084013e6105ad565b606091505b50509050806105e8576040517fdd29308700000000000000000000000000000000000000000000000000000000815260040160405180910390fd5b50565b6000678ac7230489e80000905090565b60007f0000000000000000000000000000000000000000000000000000000000000000905090565b60008082905060008173ffffffffffffffffffffffffffffffffffffffff1663feaf968c6040518163ffffffff1660e01b815260040160a060405180830381865afa158015610676573d6000803e3d6000fd5b505050506040513d601f19601f8201168201806040525081019061069a9190610aaf565b50505091505060006402540be400826106b39190610b2a565b90506000670de0b6b3a764000087836106cc9190610ba2565b6106d69190610c13565b90508094505050505092915050565b82805482825590600052602060002090810192821561075e579160200282015b8281111561075d5782518260006101000a81548173ffffffffffffffffffffffffffffffffffffffff021916908373ffffffffffffffffffffffffffffffffffffffff16021790555091602001919060010190610705565b5b50905061076b919061076f565b5090565b5b80821115610788576000816000905550600101610770565b5090565b600080fd5b600073ffffffffffffffffffffffffffffffffffffffff82169050919050565b60006107bc82610791565b9050919050565b6107cc816107b1565b81146107d757600080fd5b50565b6000813590506107e9816107c3565b92915050565b6000602082840312156108055761080461078c565b5b6000610813848285016107da565b91505092915050565b6000819050919050565b61082f8161081c565b82525050565b600060208201905061084a6000830184610826565b92915050565b6108598161081c565b811461086457600080fd5b50565b60008135905061087681610850565b92915050565b6000602082840312156108925761089161078c565b5b60006108a084828501610867565b91505092915050565b6108b2816107b1565b82525050565b60006020820190506108cd60008301846108a9565b92915050565b7f4e487b7100000000000000000000000000000000000000000000000000000000600052601160045260246000fd5b600061090d8261081c565b91506109188361081c565b92508282019050808211156109305761092f6108d3565b5b92915050565b7f4e487b7100000000000000000000000000000000000000000000000000000000600052603260045260246000fd5b60006109708261081c565b91507fffffffffffffffffffffffffffffffffffffffffffffffffffffffffffffffff82036109a2576109a16108d3565b5b600182019050919050565b7f4e487b7100000000000000000000000000000000000000000000000000000000600052604160045260246000fd5b600081905092915050565b50565b60006109f76000836109dc565b9150610a02826109e7565b600082019050919050565b6000610a18826109ea565b9150819050919050565b600069ffffffffffffffffffff82169050919050565b610a4181610a22565b8114610a4c57600080fd5b50565b600081519050610a5e81610a38565b92915050565b6000819050919050565b610a7781610a64565b8114610a8257600080fd5b50565b600081519050610a9481610a6e565b92915050565b600081519050610aa981610850565b92915050565b600080600080600060a08688031215610acb57610aca61078c565b5b6000610ad988828901610a4f565b9550506020610aea88828901610a85565b9450506040610afb88828901610a9a565b9350506060610b0c88828901610a9a565b9250506080610b1d88828901610a4f565b9150509295509295909350565b6000610b3582610a64565b9150610b4083610a64565b9250828202610b4e81610a64565b91507f80000000000000000000000000000000000000000000000000000000000000008414600084121615610b8657610b856108d3565b5b8282058414831517610b9b57610b9a6108d3565b5b5092915050565b6000610bad8261081c565b9150610bb88361081c565b9250828202610bc68161081c565b91508282048414831517610bdd57610bdc6108d3565b5b5092915050565b7f4e487b7100000000000000000000000000000000000000000000000000000000600052601260045260246000fd5b6000610c1e8261081c565b9150610c298361081c565b925082610c3957610c38610be4565b5b82820490509291505056fea26469706673582212200684f2c80d2142247a80816bd485b89280e0c83ed89c7f99c63dc103465b299264736f6c63430008110033",
  "devdoc": {
    "kind": "dev",
    "methods": {},
    "version": 1
  },
  "userdoc": {
    "kind": "user",
    "methods": {},
    "version": 1
  },
  "storageLayout": {
    "storage": [
      {
        "astId": 65,
        "contract": "contracts/FundMe.sol:FundMe",
        "label": "s_funders",
        "offset": 0,
        "slot": "0",
        "type": "t_array(t_address)dyn_storage"
      },
      {
        "astId": 69,
        "contract": "contracts/FundMe.sol:FundMe",
        "label": "s_addressToAmountFunded",
        "offset": 0,
        "slot": "1",
        "type": "t_mapping(t_address,t_uint256)"
      },
      {
        "astId": 74,
        "contract": "contracts/FundMe.sol:FundMe",
        "label": "priceFeed",
        "offset": 0,
        "slot": "2",
        "type": "t_contract(AggregatorV3Interface)45"
      }
    ],
    "types": {
      "t_address": {
        "encoding": "inplace",
        "label": "address",
        "numberOfBytes": "20"
      },
      "t_array(t_address)dyn_storage": {
        "base": "t_address",
        "encoding": "dynamic_array",
        "label": "address[]",
        "numberOfBytes": "32"
      },
      "t_contract(AggregatorV3Interface)45": {
        "encoding": "inplace",
        "label": "contract AggregatorV3Interface",
        "numberOfBytes": "20"
      },
      "t_mapping(t_address,t_uint256)": {
        "encoding": "mapping",
        "key": "t_address",
        "label": "mapping(address => uint256)",
        "numberOfBytes": "32",
        "value": "t_uint256"
      },
      "t_uint256": {
        "encoding": "inplace",
        "label": "uint256",
        "numberOfBytes": "32"
      }
    }
  }
}